:100000000C9434000C9446000C9446000C9446006A
:100010000C9446000C9446000C9446000C94460048
:100020000C9446000C9446000C9446000C94460038
:100030000C9446000C9446000C9446000C94460028
:100040000C9446000C9446000C9446000C94460018
:100050000C9446000C9446000C9446000C94460008
:100060000C9446000C94460011241FBECFEFD8E03C
:10007000DEBFCDBF21E0A0E0B1E001C01D92A333FF
:10008000B207E1F70E944F000C946E000C94000040
:100090008091C0008823E4F78091C6000895E1ECC8
:1000A000F0E0808188618083E2ECF0E0808186600E
:1000B000808387E690E09093C5008093C40080E23F
:1000C00084B915B888EC809332010E9448008136CB
:1000D00019F480E285B9F9CF15B8F7CFF894FFCFBE
:00000001FF
