:100000000C9434000C943E000C943E000C943E0082
:100010000C943E000C943E000C943E000C943E0068
:100020000C943E000C943E000C943E000C943E0058
:100030000C943E000C943E000C943E000C943E0048
:100040000C943E000C943E000C943E000C943E0038
:100050000C943E000C943E000C943E000C943E0028
:100060000C943E000C943E0011241FBECFEFD8E04C
:10007000DEBFCDBF0E9440000C9456000C940000DF
:100080008AB184608AB984B18B7F84B985B1846078
:1000900085B985B7806185BF1A9B04C08BB1846028
:1000A0008BB9FACF8BB18B7F8BB9F6CFF894FFCF9A
:00000001FF
