S017000054696D657220436F756E74657220302E73726563BC
S11300000C9434000C943E000C943E000C943E007E
S11300100C943E000C943E000C943E000C943E0064
S11300200C943E000C943E000C943E000C943E0054
S11300300C943E000C943E000C9457000C943E002B
S11300400C944D000C943E000C943E000C943E0025
S11300500C943E000C943E000C943E000C943E0024
S11300600C943E000C943E0011241FBECFEFD8E048
S1130070DEBFCDBF0E9440000C9461000C940000D0
S11300808AEF87BD84B5826484BD85B5856085BDEE
S11300908AB180648AB97894FFCF1F920F920FB609
S11300A00F9211240F900FBE0F901F9018951F925E
S11300B00F920FB60F9211240F900FBE0F901F9046
S10900C01895F894FFCF2F
S9030000FC
