S00E0000454550524F4D2E737265634E
S11300000C9434000C9446000C9446000C94460066
S11300100C9446000C9446000C9446000C94460044
S11300200C9446000C9446000C9446000C94460034
S11300300C9446000C9446000C9446000C94460024
S11300400C9446000C9446000C9446000C94460014
S11300500C9446000C9446000C9446000C94460004
S11300600C9446000C94460011241FBECFEFD8E038
S1130070DEBFCDBF21E0A0E0B1E001C01D92A03001
S1130080B207E1F70E9458000C9478000C94000029
S1130090F999FECF92BD81BD8FB381608FBB80B5CE
S11300A008959091C00095FFFCCF8093C6000895F9
S11300B0E1ECF0E0808188618083E2ECF0E0808113
S11300C08660808387E690E09093C5008093C400A7
S11300D080E090E00E9448000E9451002FEF83EDE1
S11300E090E3215080409040E1F700C00000F0CF41
S10700F0F894FFCFAE
S9030000FC
