S01A000045787465726E616C20496E746572727570742E73726563DA
S11300000C9434000C9451000C9451000C94510045
S11300100C9451000C9453000C9451000C94510016
S11300200C9451000C9451000C9451000C94510008
S11300300C9451000C9451000C9451000C945100F8
S11300400C9451000C9451000C9451000C945100E8
S11300500C9451000C9451000C9451000C945100D8
S11300600C9451000C94510011241FBECFEFD8E022
S1130070DEBFCDBF11E0A0E0B1E0EAEEF1E002C0E6
S113008005900D92A030B107D9F721E0A0E0B1E0CE
S113009001C01D92A430B207E1F70E94A7000C949E
S11300A0F3000C9400001F920F920FB60F921124CC
S11300B08F939F93AF93BF934D9B13C08091000187
S11300C090910101A0910201B0910301C296A11D7A
S11300D0B11D8093000190930101A0930201B0939C
S11300E003014F9B13C08091000190910101A091E5
S11300F00201B0910301C297A109B10980930001E3
S113010090930101A0930201B0930301BF91AF91B9
S11301109F918F910F900FBE0F901F9018950F9382
S11301201F9308C08FE99FE00197F1F700C000001A
S1130130C901B8018B019C01015011092109310940
S1130140672B682B692B71F71F910F91089584E633
S113015090E0A0E0B0E08093000190930101A093AF
S11301600201B0930301789484B18F6084B98AB199
S11301708F7D8AB98BB180628BB98AB18F778AB946
S11301808BB180688BB9E8E6F0E08081846080837D
S1130190EDE6F0E08081806A8083C1E0D0E00DC0AC
S11301A0C5B96091000170910101809102019091A3
S11301B003010E948F00CC0FDD1FC930D10580F3ED
S11301C0C8E0D0E00DC0C5B9609100017091010193
S11301D080910201909103010E948F00D695C795EA
S10D01E0209789F7DACFF894FFCFD7
S9030000FC
