S00B00004144432E7372656351
S11300000C9434000C943E000C943E000C943E007E
S11300100C943E000C943E000C943E000C943E0064
S11300200C943E000C943E000C943E000C943E0054
S11300300C943E000C943E000C943E000C943E0044
S11300400C943E000C943E000C943E000C943E0034
S11300500C943E000C943E000C943E000C943E0024
S11300600C943E000C943E0011241FBECFEFD8E048
S1130070DEBFCDBF0E9456000C9473000C940000A8
S1130080ECE7F0E09081907F90839081892B8083CE
S1130090EAE7F0E080818064808380917A0086FDC5
S11300A0FCCF80917800909179000895EAE7F0E020
S11300B0808187608083ACE7B0E08C9180648C930E
S11300C080818068808380818064808380EF8AB9A6
S11300D082E00E9440008A3F910518F080EF8BB9BE
S10D00E0F7CF1BB8F5CFF894FFCF5B
S9030000FC
